:04000000E6EF00F037
:08000800046ED8CF05F0E0CF33
:1000100006F00001E9CF0CF0EACF07F0E1CF08F0DD
:10002000E2CF09F0D9CF0AF0DACF0BF0F3CF12F01C
:10003000F4CF13F0FACF14F0F5CF15F0F6CF16F099
:10004000F7CF17F000C00EF001C00FF002C010F0A3
:1000500003C011F0F2AA30EF00F0F2B471EF00F03B
:100060009DAA36EF00F09EBA5DEF00F00EC000F0E2
:100070000FC001F010C002F011C003F00CC0E9FF86
:1000800007C0EAFF078E08C0E1FF09C0E2FF0AC00F
:10009000D9FF0BC0DAFF12C0F3FF13C0F4FF14C086
:1000A000FAFF15C0F5FF16C0F6FF17C0F7FF0450A2
:1000B00006C0E0FF05C0D8FF10008E518E2B036AEA
:1000C000200FE96E000E0320EA6E9EAAFED7AECF87
:1000D000EFFF97C0D5FFD76AD66AF2949E9A36EFA3
:1000E00000F0F2941F82D56AF29436EF00F0EA6ACB
:1000F0009B0EE96EEF500DE00A0E016E006A002EB5
:10010000FED7012EFBD75F0E006E002EFED7EF2E1E
:10011000F3D71200EF5210E0EACF9CF0E9CF9BF04A
:10012000EF509EA8FED7AD6E9CC0EAFF9BC0E9FFD2
:10013000E92AD8B4EA2AEED79DEF01F09CC0A2F0DC
:100140009BC0A1F09F5302E1A05327E09EC003F0A3
:100150009DC0E9FF9EC0EAFFEF521FE0A2C003F07E
:10016000A151A12BD8B4A22BA36F03C0A4F09EC0B1
:1001700003F09D519D2BD8B49E2BE96E03C0EAFF7E
:10018000EFCFA5F0A4C0EAFFA3C0E9FFA5C0EFFF31
:100190009F51D8B4A0079F07D5D79F5302E1A05322
:1001A0000FE0A2C003F0A151A12BD8B4A22BE96E9D
:1001B00003C0EAFFEF6A9F51D8B4A0079F07EDD7AD
:1001C0009BC001F09CC002F0B5EF01F0F86AD09E30
:1001D000078EEA6AE96AB8860A0EAF6E1A0EB06E2A
:1001E000A60EAC6E900EAB6E00000000850E976FF1
:1001F000C150C00B0F09C16E070EB46E196A1A6A9E
:100200001F901F92206A216A226A236A246A256A43
:10021000266A276A286A296A2A6A2B6A2C6A2D6A42
:100220002E6A2F6A306A316A326A336A346A356AF2
:10023000366A376A386A396A3A6A3B6A3C6A3D6AA2
:100240003E6A3F6A406A416A426A436A446A456A52
:10025000466A476A486A496A4A6A4B6A4C6A4D6A02
:100260004E6A4F6A506A516A526A536A546A556AB2
:10027000566A576A586A596A5A6A5B6A5C6A5D6A62
:100280005E6A5F6A606A616A626A636A646A656A12
:10029000666A676A686A696A6A6A6B6A6C6A6D6AC2
:1002A0006E6A6F6A706A716A726A736A746A756A72
:1002B000766A776A786A796A7A6A7B6A7C6A7D6A22
:1002C0007E6A7F6A806B816B826B836B846B856BCC
:1002D000866B876B886B896B8A6B8B6B8C6B8D6B7A
:1002E0008E6B8F6B906B916B926B936B946B956B2A
:1002F000966B986B9D8AF294F28AC00EF2129594D6
:100300008C94928080B00CD0C80E9B6FF0DE9280EF
:1003100080B005D01FA003D01F9095948C8406D088
:100320001FB004D0C80E9B6FE2DE1F801FA22ED02C
:100330001F92EA6A200EE96EEDD68E6B8E5163082D
:1003400021E3036A8E51200FE96E000E0320EA6E4E
:10035000EF502D080AE19C6B900E9B6F9E6B200E58
:100360009D6FA06B060E9F6FE9D6036A8E51200F1A
:10037000016E000E032203C0EAFF01C0E9FFEF6A2D
:100380008E2BDCD7966B8E6B95948C94BAD7000E1F
:04039000016E0300F7
:020000040030CA
:0E00000000C61E1E008781000FC00FE00F40DB
:00000001FF
;PIC18F4520
;CRC=587B  CREATED="31-mai-13 14:34"
