:04000000F6EF04F023
:08000800046ED8CF05F0E0CF33
:1000100006F00001E9CF0CF0EACF07F0E1CF08F0DD
:10002000E2CF09F0D9CF0AF0DACF0BF0F3CF12F01C
:10003000F4CF13F0FACF14F0F5CF15F0F6CF16F099
:10004000F7CF17F000C00EF001C00FF002C010F0A3
:1000500003C011F0F2AA30EF00F0F2B46FEF00F03D
:100060009DAA36EF00F09EBA5DEF00F00EC000F0E2
:100070000FC001F010C002F011C003F00CC0E9FF86
:1000800007C0EAFF078E08C0E1FF09C0E2FF0AC00F
:10009000D9FF0BC0DAFF12C0F3FF13C0F4FF14C086
:1000A000FAFF15C0F5FF16C0F6FF17C0F7FF0450A2
:1000B00006C0E0FF05C0D8FF100002012051202B30
:1000C000200FE96EEA6AD8B0EA2A9EAAFED7AECF20
:1000D000EFFF23C4D5FF9E9A000136EF00F0F294A3
:1000E0001F82D56AD76AD66A200E02012025E96EE2
:1000F000EA6AD8B0EA2AEF6A206BF294000136EF80
:1001000000F048656C6C6F002564206E756D65723B
:100110006F733A0A00000900F5520DE0F6CFA6F41D
:10012000F7CFA7F4F5509EA8FED7AD6EA6C4F6FF94
:10013000A7C4F7FFF0D7A7EF09F0040EEA6EA60EEA
:10014000E96EEF500DE00A0E016E006A002EFED738
:10015000012EFBD75F0E006E002EFED7EF2EF3D7D9
:1001600012000401B751D8B471D0006EBB51D8B49D
:100170006DD0002604E3810E002668E204D07F0ED5
:10018000005E64E363E0B8C4BFF4BC51BF1BB88F2A
:10019000BC8FBA51BE03F4CFC1F4B951BD03F4CF43
:1001A00003F0F3CFC0F4BE03F350C127F450C023D3
:1001B000000E0322BA51BD03F350C127F450C023EF
:1001C000000E026A03220222B851BE03F350C02778
:1001D000F4500322000E0222B851BD03F35003264F
:1001E000F4500222000E016A0122BA51BC03F350FE
:1001F000C027F4500322000E02220122B951BC0391
:10020000F3500326F4500222000E0122B851BC0321
:10021000F3500226F4500122002A01BE05D0C03757
:100220000336023601360006000EC0AF0AD0032A9C
:1002300002220122015005E1025003E1035001E1D5
:10024000002ABFBF018EBFAF019E04D0006A016AC1
:10025000026A036A000112008E0E006EBCC401F037
:10026000BBC402F0036A015209E102C001F0026A54
:10027000080E005E015202E1006A08D0D89001BE6B
:1002800004D0023601360006F9D7019E120004019F
:10029000BB51D8B4A5D0C76FBF51D8B4A1D0C75FE8
:1002A00005E37F0EC727D8B09BD006D0810EC75F6D
:1002B000D8A096D0D8B494D0C7C400F0016A026A1E
:1002C000036AC66BBCC4C5F4C58FBDC4C4F4BEC448
:1002D000C3F4190EC76FC251C35F0DE2010EC45FB4
:1002E0000AE2C55F08E2C65F06E2C62BC52BC42B37
:1002F000C251C32728D0C151C45F12E2010EC55FAD
:100300000FE2C65F0DE2C62BC52BC151C427C251F7
:10031000C32719E3C42B17E1C52B15E1C62B13D056
:10032000C0518009C55F0EE2010EC65F0BE2C62B0D
:10033000C0518009C527C151C427E9E3C52BE7E1B6
:10034000C62BE5D70380C72F01D00BD0D890C33779
:10035000C437C537C637D890033602360136C8379A
:10036000BAD7C8A106D0D890013202320332C833BE
:1003700002D0000635E0C8BF1ED0D890C337C437BE
:10038000C537C637C251C35F07E2010EC45F04E23E
:10039000C55F02E2C65F1AE3C151C45F05E2010E08
:1003A000C55F02E2C65F12E3C0518009C55F03E288
:1003B000010EC65F0BE3032A09E1022A07E1012AC5
:1003C00005E1002A0DE0013202320332BCC4C7F459
:1003D000C051C71BC7AF02D0018E06D0019E04D00A
:1003E000006A016A026A036A0001B5EF03F0800E39
:1003F000D8A202D00401C01B0401C56BC66BBCC4EB
:10040000C4F4C051C41BBB51D8B4DFD0C36F006E5D
:10041000BF51D8B4E3D0C35FD8B483D03EE3C0C4E7
:10042000C9F4C98FC1C4C8F4C2C4C7F4C66BD8909C
:10043000C933C833C733C633C32FF8D7C4AF03D0CB
:10044000C581E0D0C591C391C589040EEA6EBE0E88
:10045000E96EEBD0C599C4BF0AD0C3A113D0C9338C
:10046000C833C733C633002AD8B4C7D00BD0C9BFEE
:100470000CD0D890C637C737C837C9370006D8B4AC
:10048000BCD0F5D7C58D6DD0C59DBCC4C4F4BCAF80
:1004900002D0C98FABD0C99FA9D0BFC4C3F4BFC419
:1004A00000F0BB51C35FBCC4C9F4C98FBDC4C8F45C
:1004B000BEC4C7F4C66BD890C933C833C733C6337C
:1004C000C32FF8D7C4AF03D0C5839CD0C593C391C5
:1004D000C58B040EEA6EC20EE96EA7D0C59BC4BFE1
:1004E0000AD0C3A113D0C933C833C733C633002AD7
:1004F000D8B483D00BD0C9BF0CD0D890C637C7377B
:10050000C837C9370006D8B478D0F5D7C58F29D0F9
:10051000C59FC0C4C4F4C0AF02D0C98F67D0C99F03
:1005200065D0C0C4C9F4C98FC1C4C8F4C2C4C7F47B
:10053000C4AF04D0C99FC58565D0C595C66BC391AE
:10054000040EEA6EBE0EE96E70D0C4BF1CD0BCC4EF
:10055000C4F4C3A106D0C933C833C733C633002A95
:100560004CE0C6AF0BD0C72B09E1C82B07E1C92B64
:1005700005E1C933C833C733002A3FE0C5BD84D77E
:10058000C5BFC6D71CD0800EC91BC9AF04D03AD096
:10059000C0C4C4F40AD0BCC4C4F4C95306E1C853EF
:1005A00004E1C75302E1006A21D0C9BF08D0D89046
:1005B000C637C737C837C937002EF7D71ED0C4AFE4
:1005C00002D0C98F13D0C99F11D0BFC400F0C0C4DE
:1005D000C9F4C1C4C8F4C2C4C7F408D0BBC400F095
:1005E000BCC4C9F4BDC4C8F4BEC4C7F4C9C401F0D6
:1005F000C8C402F0C7C403F034D0006A016A026ABA
:10060000036A2FD0C66BC71FC81FC91FC61FC62BC2
:1006100005E1C72B03E1C82B01E1C92BC5B112D7F6
:10062000C5B354D7C5B589D7B3D7EF50C72705E3AE
:10063000C82B03E1C92BD8B4C381ED52EF50C827B2
:1006400003E3C92BD8B4C381ED52EF50EFBE01D004
:10065000800AC927D8B0C381C5B9FCD6C5BB3ED76F
:1006600074D7000112000401AF6BAE6BAD6B7F0E4F
:10067000AC6FB36BB26BB16BB06BB481B493B49528
:10068000B66BA851A91105E1006A016A026A036A02
:100690000FD1B651B62B036AA825E96EA9510320E4
:1006A000EA6EEFCFB5F4B553D8B4C5D0B4A10FD02E
:1006B000B55120080CE0B491B5512B0803E1B49377
:1006C000ADD005D0B5512D0802E1B483A7D0B4B1A7
:1006D00007D0B5512E0804E1B4B502D0B4859ED040
:1006E000B4B199D0B5512F08D8B095D0B5513908CB
:1006F000D8A091D0300EB55FB4A553D0AFC4BAF432
:10070000AEC4B9F4ADC4B8F4ACC4B7F4BE6BBD6B41
:10071000200EBC6F820EBB6F000123DD03C0AFF45F
:1007200002C0AEF401C0ADF400C0ACF40401BC6B77
:10073000B5C4BBF4000190DD00C0B7F401C0B8F44B
:1007400002C0B9F403C0BAF403C0BEF402C0BDF4E1
:1007500001C0BCF400C0BBF4AFC4C2F4AEC4C1F469
:10076000ADC4C0F4ACC4BFF492D5D892B3C4BEF447
:10077000B2C4BDF4B1C4BCF4B0C4BBF403C0C2F491
:1007800002C0C1F401C0C0F400C0BFF430DE03C039
:10079000B3F402C0B2F401C0B1F400C0B0F439D077
:1007A0000401BA6BB96B200EB86F820EB76FB3C479
:1007B000BEF4B2C4BDF4B1C4BCF4B0C4BBF4000117
:1007C000D0DC00C0B7F401C0B8F402C0B9F403C073
:1007D000BAF40401BC6BB5C4BBF400013DDDD89292
:1007E000BAC4BEF4B9C4BDF4B8C4BCF4B7C4BBF455
:1007F00003C0C2F402C0C1F401C0C0F400C0BFF421
:10080000F6DD03C0B3F402C0B2F401C0B1F400C01D
:10081000B0F405D00401B4B101D00DD00001040141
:10082000B651B62B036AA825E96EA9510320EA6EDA
:10083000EFCFB5F438D7B4A319D0BA6BB96B800E2B
:10084000B86F7F0EB76FB3C4BEF4B2C4BDF4B1C409
:10085000BCF4B0C4BBF4000184DC03C0B3F402C038
:10086000B2F401C0B1F400C0B0F40401AA51AB115C
:1008700017E0B6530CE0B607AAC4E9FFABC4EAFF21
:10088000B651A825EF6E000EA921EC6E09D0AAC4BE
:10089000E9FFABC4EAFFA9C4ECFFED52A8C4EFFF27
:1008A000B0C400F0B1C401F0B2C402F0B3C403F0AC
:1008B00000012AEF0AF00401AD51016AAC5D03E2C8
:1008C000ACC400F00CD0006A080EAE6FAC37003636
:1008D000AD51005CD8B0006E0136AE2FF7D70001E5
:1008E0001200200E0401A7A9300EA86FA6C400F0C4
:1008F000A6AF07D0001E002A00C0A6F42D0EA86FD8
:10090000A78F0150A6C4ACF4640EAD6F0001D3DF15
:1009100000C0A6F4300E01240401A96FA6C4ACF4F3
:100920000A0EAD6F0001C7DF300E00240401AB6F6B
:10093000300E0124AA6FA8C400F0A7A702D0A7AF69
:10094000A795A7B90BD0A7AF22D0A7B520D000C0DC
:10095000A9F4A7B31CD000C0AAF419D0300EA95D29
:1009600016E100C0A9F4200EA86FA7A704D0A79590
:10097000A783A7AFA793300EAA5D09E100C0AAF430
:10098000200EA96FA7A7F7D7A793A7AFA791A7A5F1
:1009900004D0A8519EA8FED7AD6EA7A304D0A9513C
:1009A0009EA8FED7AD6EA7A104D0AA519EA8FED7DF
:1009B000AD6EAB519EA8FED7AD6E000146EF0AF0BA
:1009C0000900F6CFA7F4F7CFA8F4F5509EA8FED7FC
:1009D000AD6EA7C4F6FFA8C4F7FF0401A62F01D08F
:1009E00002D00001EDD7000150EF0AF0F86AD09E66
:1009F000078EEA6AE96AB886400EAF6E030EB06EE3
:100A0000A60EAC6E900EAB6E00000000850E0401C9
:100A1000236FC150C00B0F09C16E070EB46E196A67
:100A20001A6A1F901F92206A216A226A236A246A26
:100A3000256A266A276A286A296A2A6A2B6A2C6A22
:100A40002D6A2E6A2F6A306A316A326A336A346AD2
:100A5000356A366A376A386A396A3A6A3B6A3C6A82
:100A60003D6A3E6A3F6A406A416A426A436A446A32
:100A7000456A466A476A486A496A4A6A4B6A4C6AE2
:100A80004D6A4E6A4F6A506A516A526A536A546A92
:100A9000556A566A576A586A596A5A6A5B6A5C6A42
:100AA0005D6A5E6A5F6A606A616A626A636A646AF2
:100AB000656A666A676A686A696A6A6A6B6A6C6AA2
:100AC0006D6A6E6A6F6A706A716A726A736A746A52
:100AD000756A766A776A786A796A7A6A7B6A7C6A02
:100AE0007D6A7E6A7F6A0001806B816B826B836B9B
:100AF000846B856B866B876B886B896B8A6B8B6B62
:100B00008C6B8D6B8E6B8F6B906B916B926B936B11
:100B1000946B956B966B976B986B996B9A6B9B6BC1
:100B20009C6B9D6B9E6B9F6BA06BA16BA26BA36B71
:100B3000A46BA56BA66BA76BA86BA96BAA6BAB6B21
:100B4000AC6BAD6BAE6BAF6BB06BB16BB26BB36BD1
:100B5000B46BB56BB66BB76BB86BB96BBA6BBB6B81
:100B6000BC6BBD6BBE6BBF6BC06BC16BC26BC36B31
:100B7000C46BC56BC66BC76BC86BC96BCA6BCB6BE1
:100B8000CC6BCD6BCE6BCF6BD06BD16BD26BD36B91
:100B9000D46BD56BD66BD76BD86BD96BDA6BDB6B41
:100BA000DC6BDD6BDE6BDF6BE06BE16BE26BE36BF1
:100BB000E46BE56BE66BE76BE86BE96BEA6BEB6BA1
:100BC000EC6BED6BEE6BEF6BF06BF16BF26BF36B51
:100BD000F46BF56BF66BF76BF86BF96BFA6BFB6B01
:100BE000FC6BFD6BFE6BFF6B0101006B016B026B1D
:100BF000036B046B056B066B076B086B096B0A6B69
:100C00000B6B0C6B0D6B0E6B0F6B106B116B126B18
:100C1000136B146B156B166B176B186B196B1A6BC8
:100C20001B6B1C6B1D6B1E6B1F6B206B216B226B78
:100C3000236B246B256B266B276B286B296B2A6B28
:100C40002B6B2C6B2D6B2E6B2F6B306B316B326BD8
:100C5000336B346B356B366B376B386B396B3A6B88
:100C60003B6B3C6B3D6B3E6B3F6B406B416B426B38
:100C7000436B446B456B466B476B486B496B4A6BE8
:100C80004B6B4C6B4D6B4E6B4F6B506B516B526B98
:100C9000536B546B556B566B576B586B596B5A6B48
:100CA0005B6B5C6B5D6B5E6B5F6B606B616B626BF8
:100CB000636B646B656B666B676B686B696B6A6BA8
:100CC0006B6B6C6B6D6B6E6B6F6B706B716B726B58
:100CD000736B746B756B766B776B786B796B7A6B08
:100CE0007B6B7C6B7D6B7E6B7F6B806B816B826BB8
:100CF000836B846B856B866B876B886B896B8A6B68
:100D00008B6B8C6B8D6B8E6B8F6B906B916B926B17
:100D1000936B946B956B966B976B986B996B9A6BC7
:100D20009B6B9C6B9D6B9E6B9F6BA06BA16BA26B77
:100D3000A36BA46BA56BA66BA76BA86BA96BAA6B27
:100D4000AB6BAC6BAD6BAE6BAF6BB06BB16BB26BD7
:100D5000B36BB46BB56BB66BB76BB86BB96BBA6B87
:100D6000BB6BBC6BBD6BBE6BBF6BC06BC16BC26B37
:100D7000C36BC46BC56BC66BC76BC86BC96BCA6BE7
:100D8000CB6BCC6BCD6BCE6BCF6BD06BD16BD26B97
:100D9000D36BD46BD56BD66BD76BD86BD96BDA6B47
:100DA000DB6BDC6BDD6BDE6BDF6BE06BE16BE26BF7
:100DB000E36BE46BE56BE66BE76BE86BE96BEA6BA7
:100DC000EB6BEC6BED6BEE6BEF6BF06BF16BF26B57
:100DD000F36BF46BF56BF66BF76BF86BF96BFA6B07
:100DE000FB6BFC6BFD6BFE6BFF6B0201006B016B21
:100DF000026B036B046B056B066B076B086B096B6F
:100E00000A6B0B6B0C6B0D6B0E6B0F6B106B116B1E
:100E1000126B136B146B156B166B176B186B196BCE
:100E20001A6B1B6B1C6B1D6B1E6B1F6B206B216B7E
:100E3000226B236B246B256B266B276B286B296B2E
:100E40002A6B2B6B2C6B2D6B2E6B2F6B306B316BDE
:100E5000326B336B346B356B366B376B386B396B8E
:100E60003A6B3B6B3C6B3D6B3E6B3F6B406B416B3E
:100E7000426B436B446B456B466B476B486B496BEE
:100E80004A6B4B6B4C6B4D6B4E6B4F6B506B516B9E
:100E9000526B536B546B556B566B576B586B596B4E
:100EA0005A6B5B6B5C6B5D6B5E6B5F6B606B616BFE
:100EB000626B636B646B656B666B676B686B696BAE
:100EC0006A6B6B6B6C6B6D6B6E6B6F6B706B716B5E
:100ED000726B736B746B756B766B776B786B796B0E
:100EE0007A6B7B6B7C6B7D6B7E6B7F6B806B816BBE
:100EF000826B836B846B856B866B876B886B896B6E
:100F00008A6B8B6B8C6B8D6B8E6B8F6B906B916B1D
:100F1000926B936B946B956B966B976B986B996BCD
:100F20009A6B9B6B9C6B9D6B9E6B9F6BA06BA16B7D
:100F3000A26BA36BA46BA56BA66BA76BA86BA96B2D
:100F4000AA6BAB6BAC6BAD6BAE6BAF6BB06BB16BDD
:100F5000B26BB36BB46BB56BB66BB76BB86BB96B8D
:100F6000BA6BBB6BBC6BBD6BBE6BBF6BC06BC16B3D
:100F7000C26BC36BC46BC56BC66BC76BC86BC96BED
:100F8000CA6BCB6BCC6BCD6BCE6BCF6BD06BD16B9D
:100F9000D26BD36BD46BD56BD66BD76BD86BD96B4D
:100FA000DA6BDB6BDC6BDD6BDE6BDF6BE06BE16BFD
:100FB000E26BE36BE46BE56BE66BE76BE86BE96BAD
:100FC000EA6BEB6BEC6BED6BEE6BEF6BF06BF16B5D
:100FD000F26BF36BF46BF56BF66BF76BF86BF96B0D
:100FE000FA6BFB6BFC6BFD6BFE6BFF6B0301006B25
:100FF000016B026B036B046B056B066B076B086B75
:10100000096B0A6B0B6B0C6B0D6B0E6B0F6B106B24
:10101000116B126B136B146B156B166B176B186BD4
:10102000196B1A6B1B6B1C6B1D6B1E6B1F6B206B84
:10103000216B226B236B246B256B266B276B286B34
:10104000296B2A6B2B6B2C6B2D6B2E6B2F6B306BE4
:10105000316B326B336B346B356B366B376B386B94
:10106000396B3A6B3B6B3C6B3D6B3E6B3F6B406B44
:10107000416B426B436B446B456B466B476B486BF4
:10108000496B4A6B4B6B4C6B4D6B4E6B4F6B506BA4
:10109000516B526B536B546B556B566B576B586B54
:1010A000596B5A6B5B6B5C6B5D6B5E6B5F6B606B04
:1010B000616B626B636B646B656B666B676B686BB4
:1010C000696B6A6B6B6B6C6B6D6B6E6B6F6B706B64
:1010D000716B726B736B746B756B766B776B786B14
:1010E000796B7A6B7B6B7C6B7D6B7E6B7F6B806BC4
:1010F000816B826B836B846B856B866B876B886B74
:10110000896B8A6B8B6B8C6B8D6B8E6B8F6B906B23
:10111000916B926B936B946B956B966B976B986BD3
:10112000996B9A6B9B6B9C6B9D6B9E6B9F6BA06B83
:10113000A16BA26BA36BA46BA56BA66BA76BA86B33
:10114000A96BAA6BAB6BAC6BAD6BAE6BAF6BB06BE3
:10115000B16BB26BB36BB46BB56BB66BB76BB86B93
:10116000B96BBA6BBB6BBC6BBD6BBE6BBF6BC06B43
:10117000C16BC26BC36BC46BC56BC66BC76BC86BF3
:10118000C96BCA6BCB6BCC6BCD6BCE6BCF6BD06BA3
:10119000D16BD26BD36BD46BD56BD66BD76BD86B53
:1011A000D96BDA6BDB6BDC6BDD6BDE6BDF6BE06B03
:1011B000E16BE26BE36BE46BE56BE66BE76BE86BB3
:1011C000E96BEA6BEB6BEC6BED6BEE6BEF6BF06B63
:1011D000F16BF26BF36BF46BF56BF66BF76BF86B13
:1011E000F96BFA6BFB6BFC6BFD6BFE6BFF6B040129
:1011F000006B016B026B036B046B056B066B076B7B
:10120000086B096B0A6B0B6B0C6B0D6B0E6B0F6B2A
:10121000106B116B126B136B146B156B166B176BDA
:10122000186B196B1A6B1B6B1C6B1D6B1E6B1F6B8A
:10123000206B216B226B246B256B266B276B286B35
:10124000296B2A6B2B6B2C6B2D6B2E6B2F6B306BE2
:10125000316B326B336B346B356B366B376B386B92
:10126000396B3A6B3B6B3C6B3D6B3E6B3F6B406B42
:10127000416B426B436B446B456B466B476B486BF2
:10128000496B4A6B4B6B4C6B4D6B4E6B4F6B506BA2
:10129000516B526B536B546B556B566B576B586B52
:1012A000596B5A6B5B6B5C6B5D6B5E6B5F6B606B02
:1012B000616B626B636B646B656B666B676B686BB2
:1012C000696B6A6B6B6B6C6B6D6B6E6B6F6B706B62
:1012D000716B726B736B746B756B766B776B786B12
:1012E000796B7A6B7B6B7C6B7D6B7E6B7F6B806BC2
:1012F000816B826B836B846B856B866B876B886B72
:10130000896B8A6B8B6B8C6B8D6B8E6B8F6B906B21
:10131000916B926B936B946B956B966B976B986BD1
:10132000996B9A6B9B6B9C6B9D6B9E6B9F6BA06B81
:10133000A16BA26BA36B9D8AF294F28AC00EF2128B
:10134000020EF66E010EF76E00018BEF00F0928038
:1013500080B00DD0C80E0401A66F00019DEC00F016
:10136000928080B003D01FA001D01F9009D01FB081
:1013700007D0C80E0401A66F00019DEC00F01F808D
:101380001FA296D01F920401A56B200EA46FA5C4C6
:1013900003F0A4C4E9FFA5C4EAFFEF526CE0A5C4C2
:1013A00003F0A4C4E9FFA5C4EAFFEF502D081BE039
:1013B000A5C403F0A4C4E9FFA5C4EAFFEF502F08B9
:1013C00009E2A5C403F0A4C4E9FFA5C4EAFFEF50F5
:1013D000390809E2A5C403F0A4C4E9FFA5C4EAFFE3
:1013E000EF502E0817E12151212B210F016E020E23
:1013F000036ED8B0032A03C0A7F4A4C4E9FFA5C4B0
:10140000EAFFEFCFA8F4A7C4EAFF01C0E9FFA8C430
:10141000EFFF2DD021532BE0210E2125E96E020E86
:10142000EA6ED8B0EA2AEF6A2251222B040DF3505B
:10143000036A240F016E040E032201C0A6F403C048
:10144000A7F4020EA96F210EA86FAB6BAA6B000167
:1014500033EF03F0A7C4EAFFA6C4E9FF00C0EFFF23
:1014600001C0ECFF02C0ECFF03C0ECFF0401A42BA1
:10147000D8B4A52B8CD70C0E9EA8FED7AD6E22C477
:10148000A6F41F0EA76F000171EF04F00A0EF66EAE
:10149000010EF76E0A0E0401A66F0001E0EF04F0E2
:1014A0000401216B226B276B266B256B246B0001DB
:0814B0004ED7000E016E03008F
:020000040030CA
:0E00000000C61E1E008781000FC00FE00F40DB
:00000001FF
;PIC18F4520
;CRC=7946  CREATED="05-jun-13 08:58"
